S02B0000443A2F45636F6D70202D20556566732F35BA2073656D65737472652F5465636E6F6C6F676963617383
S113000044004000C00200003400800344008073B8
S113001032C08703340080030430807332C0870306
S1130020C419800232C0870A06200000340080030D
S1130030040E807332C0870332C087033400800308
S1130040440E807332C08703340080030405807338
S113005032C08703340080038417807332C087035F
S113006034008003441B807332C087033400800350
S1130070041C807332C0870334008003040380733C
S113008032C08703340080038401807332C0870345
S1130090340080034400807332C08703340080033B
S10F00A04400807332C087033A2800F843
S9030000FC
