S02B0000433A2F55736572732F6D617468652F446F63756D656E74732F4A756D7047616D652F474D572F4D6FAD
S113000044004000400600003400C0054400C0BD68
S1130010340280040448A89432C0C7053400800523
S1130020041C88B534004005041448AD34000005B0
S1130030041808A53400C0040410C89C340040040B
S1130040C436408C34000004C42A00843400C00345
S11300500408C07B3400800304008073400E000059
S1130060069300003400C005040EC0BD32C0C705AD
S113007032C0C7053400C0050405C0BD3400C00546
S1130080440EC0BD32C0C70532C0C7053400C00528
S11300908417C0BD32C0C7053400C005441BC0BDB1
S11300A032C0C7053400C005041CC0BD32C0C7053A
S11300B03400C0050403C0BD32C0C7053400C00508
S11300C08401C0BD32C0C7053400C0054400C0BDB2
S11300D032C0C7053400C0054400C0BD32C0C705E6
S11300E03A2800F83400C0058400C0BD32C0C705FA
S11300F03400C0020408C05A3A88D50232C0870AC4
S11301003400C0020408C05A3A88D50232C0870AB3
S11301103400C0020408C05A3A88D50232C0870AA3
S11301203400C0020408C05A3A88D50232C0870A93
S11301303400C0020414C05A3A88D50232C0870A77
S11301403400C002441DC05A3A88D50232C0870A1E
S11301503400C002041BC05A3A88D50232C0870A50
S11301603400C0024419C05A3A88D50232C0870A02
S11301703400C0020408C05A3A88D50232C0870A43
S11301803400C002041CC05A3A88D50232C0870A1F
S11301903400C0024418C05A3A88D50232C0870AD3
S11301A03400C002841CC05A3A88D50232C0870A7F
S11301B03400C0024418C05A3A88D50232C0870AB3
S11301C03400C0054400C0BD3400C0050430C0BDC7
S11301D032C0C7053400C0020408C05A3A88D502A8
S11301E032C0870A3400C0020408C05A3A88D502D3
S11301F032C0870A3400C0020408C05A3A88D502C3
S113020032C0870A3400C0020408C05A3A88D502B2
S113021032C0870A3400C0020408C05A3A88D502A2
S113022032C0870A3400C002441AC05A3A88D50240
S113023032C0870A3400C002841BC05A3A88D502EF
S113024032C0870A3400C002441AC05A3A88D50220
S113025032C0870A3400C002C418C05A3A88D50292
S113026032C0870A3400C002441AC05A3A88D50200
S113027032C0870A3400C0024418C05A3A88D502F2
S113028032C0870A3400C002841CC05A3A88D5029E
S113029032C0870A3400C0024408C05A3A88D502E2
S11302A032C0870A3A881D003A8819003A2800F8B3
S11302B03A880900170000A21EFD3F403400C00523
S11302C04400C0BD32C0C70506000000150040B0A0
S11302D0170000AA26FD7F40150000B0170000A2F9
S11302E03400C0054400C0BD32C0C7053400C00599
S11302F00430C0BD32C0C70532C0C705062B00009C
S11303003400400204C6414A040480000600000090
S11303102613001017004049260300281E09002850
S11303200404800006FA3F003400C0020408C05AE6
S11303303A88D50232C0870A0401404AC4FFBF107C
S113034006F33F003400C002C436C05A3A88D502CE
S113035032C0870A0401404AC4FFBF1006EC3F00C4
S11303603400400204C6414A040480000600000030
S113037026090010003800000401404A06FC3F0032
S1130380170080491701C0491500C049150180496B
S1130390C4FFBF103A2800F8C4FFBF941EFE3F906C
S11303A0340280040448A89406C83F003A885D706B
S11303B000440000006F00003400400204C6414ABB
S11303C007008049260500402601404006F73F000B
S11303D0261540201E160030060C00002612402070
S11303E0060000003400C0058400C0BD32C0C7054B
S11303F032C0070C3A882F003400C0050430C0BD59
S113040032C0C7054400000106BD3F003A882F00F2
S11304103400C0050430C0BD32C0C70532C0070C6B
S11304203A88090006B63F001EF87F3006ED3F000B
S1130430150040B006F23E004400807306E93F0018
S113044034008002040C80523019807126960030EA
S1130450A80280712613003028058071261D003003
S1130460A807807126280030280A807126330030BE
S1130470A80C8071263E0030280F80712649003078
S1130480A81180712654003028148071265F003032
S1130490A8168071266A00302819807126750030EC
S11304A03A2800F88403C005040080510420C0BD2C
S11304B032C0C70532C087093A888D03C403C0051A
S11304C03A8895530420C0BD32C0C70532C0870A9C
S11304D03A2800F88403C005440080510420C0BDBC
S11304E032C0C70532C087093A888D0384FDBF3105
S11304F0C403C0053A888D320420C0BD32C0C7058C
S113050032C087093A2800F88403C005840080516A
S11305100420C0BD32C0C70532C087093A888D03A4
S113052004FBBF31C403C0053A888D320420C0BD2A
S113053032C0C70532C087093A2800F88403C005D1
S1130540C40080510420C0BD32C0C70532C0870931
S11305503A888D0384F8BF31C403C0053A888D32CC
S11305600420C0BD32C0C70532C087093A2800F84C
S11305708403C005040180510420C0BD32C0C705F6
S113058032C087093A888D0304F6BF31C403C0051D
S11305903A888D320420C0BD32C0C70532C08709F5
S11305A03A2800F88403C005440180510420C0BDEA
S11305B032C0C70532C087093A888D0384F3BF313E
S11305C0C403C0053A888D320420C0BD32C0C705BB
S11305D032C087093A2800F88403C0058401805199
S11305E00420C0BD32C0C70532C087093A888D03D4
S11305F004F1BF31C403C0053A888D320420C0BD64
S113060032C0C70532C087093A2800F88403C00500
S1130610C40180510420C0BD32C0C70532C087095F
S11306203A888D0384EEBF31C403C0053A888D3205
S11306300420C0BD32C0C70532C087093A2800F87B
S11306408403C005040280510420C0BD32C0C70524
S113065032C087093A888D0304ECBF31C403C00556
S11306603A888D320420C0BD32C0C70532C0870924
S11306703A2800F88403C005440280510420C0BD18
S113068032C0C70532C087093A888D0384E9BF3177
S1130690C403C0053A888D320420C0BD32C0C705EA
S11306A032C087093A2800F84403C0054400805149
S11306B03A881D00440000630420C0BD32C0C70551
S11306C032C087098403C005040080510420C0BDE2
S11306D032C0C70532C087093A888D03C403C005F8
S11306E00420C0BD32C0C70532C087093A2800F8CB
S11306F01E0100603A2800F834008002040C805285
S11307004403C0053A880D530420C0BD32C0C70558
S10B071032C087093A2800F801
S113071800000000000000000000000001000000CC
S113072800000000000000000000000001000000BC
S113073801000000000000000000000000000000AC
S11307480100000001000000010000000100000099
S9030000FC
