S02B0000443A2F45636F6D70202D20556566732F35BA2073656D65737472652F5465636E6F6C6F676963617383
S113000044004000C00600003400C0054400C0BDE8
S113001032C0C70534008005041C88B5340040058F
S1130020041848AD34000005041408A53400C004C5
S11300300410C89C34008004040F809434004004ED
S1130040C436408C34000004442F00843400C003C0
S11300500408C07B34008003040080733400400330
S11300600400406BC00E0000069100003400C0057F
S1130070040EC0BD32C0C70532C0C7053400C00578
S11300800405C0BD3400C005440EC0BD32C0C70560
S113009032C0C7053400C0058417C0BD32C0C705CF
S11300A03400C005441BC0BD32C0C7053400C005C0
S11300B0041CC0BD32C0C7053400C0050403C0BD64
S11300C032C0C7053400C0058401C0BD32C0C705B5
S11300D03400C0054400C0BD32C0C7053400C005AB
S11300E04400C0BD32C0C7053A2800F83400C0053A
S11300F08400C0BD32C0C7053400C0020408C05A21
S11301003A88D50232C0870A3400C0020408C05AB3
S11301103A88D50232C0870A3400C0020408C05AA3
S11301203A88D50232C0870A3400C0020408C05A93
S11301303A88D50232C0870A3400C0020414C05A77
S11301403A88D50232C0870A3400C002441DC05A1E
S11301503A88D50232C0870A3400C002041BC05A50
S11301603A88D50232C0870A3400C0024419C05A02
S11301703A88D50232C0870A3400C0020408C05A43
S11301803A88D50232C0870A3400C002041CC05A1F
S11301903A88D50232C0870A3400C0024418C05AD3
S11301A03A88D50232C0870A3400C002841CC05A7F
S11301B03A88D50232C0870A3400C0024418C05AB3
S11301C03A88D50232C0870A3400C0054400C0BD55
S11301D03400C0050430C0BD32C0C7053400C002BD
S11301E00408C05A3A88D50232C0870A3400C002D3
S11301F00408C05A3A88D50232C0870A3400C002C3
S11302000408C05A3A88D50232C0870A3400C002B2
S11302100408C05A3A88D50232C0870A3400C002A2
S11302200408C05A3A88D50232C0870A3400C00292
S1130230441AC05A3A88D50232C0870A3400C00230
S1130240841BC05A3A88D50232C0870A3400C002DF
S1130250441AC05A3A88D50232C0870A3400C00210
S1130260C418C05A3A88D50232C0870A3400C00282
S1130270441AC05A3A88D50232C0870A3400C002F0
S11302804418C05A3A88D50232C0870A3400C002E2
S1130290841CC05A3A88D50232C0870A3400C0028E
S11302A04408C05A3A88D50232C0870A3A2800F86E
S11302B015000098170000AA2601004006FC3F0024
S11302C0150040B0170000A22601004006FC3F00C4
S10B02D0150000B006FE3F001A
S9030000FC
