S02B0000433A2F55736572732F6D617468652F4465736B746F702F474D572F4D6F6E69746F722F506C6163618E
S113000044004000C00600003400C0054400C0BDE8
S1130010340280040448A89432C0C7053400800523
S1130020041C88B534004005041448AD34000005B0
S1130030041808A53400C0040410C89C340040040B
S1130040C436408C34000004442F00843400C003C0
S11300500408C07B34008003040080733400400330
S11300600400406BC00E0000069100003400C0057F
S1130070040EC0BD32C0C70532C0C7053400C00578
S11300800405C0BD3400C005440EC0BD32C0C70560
S113009032C0C7053400C0058417C0BD32C0C705CF
S11300A03400C005441BC0BD32C0C7053400C005C0
S11300B0041CC0BD32C0C7053400C0050403C0BD64
S11300C032C0C7053400C0058401C0BD32C0C705B5
S11300D03400C0054400C0BD32C0C7053400C005AB
S11300E04400C0BD32C0C7053A2800F83400C0053A
S11300F08400C0BD32C0C7053400C0020408C05A21
S11301003A88D50232C0870A3400C0020408C05AB3
S11301103A88D50232C0870A3400C0020408C05AA3
S11301203A88D50232C0870A3400C0020408C05A93
S11301303A88D50232C0870A3400C0020414C05A77
S11301403A88D50232C0870A3400C002441DC05A1E
S11301503A88D50232C0870A3400C002041BC05A50
S11301603A88D50232C0870A3400C0024419C05A02
S11301703A88D50232C0870A3400C0020408C05A43
S11301803A88D50232C0870A3400C002041CC05A1F
S11301903A88D50232C0870A3400C0024418C05AD3
S11301A03A88D50232C0870A3400C002841CC05A7F
S11301B03A88D50232C0870A3400C0024418C05AB3
S11301C03A88D50232C0870A3400C0054400C0BD55
S11301D03400C0050430C0BD32C0C7053400C002BD
S11301E00408C05A3A88D50232C0870A3400C002D3
S11301F00408C05A3A88D50232C0870A3400C002C3
S11302000408C05A3A88D50232C0870A3400C002B2
S11302100408C05A3A88D50232C0870A3400C002A2
S11302200408C05A3A88D50232C0870A3400C00292
S1130230441AC05A3A88D50232C0870A3400C00230
S1130240841BC05A3A88D50232C0870A3400C002DF
S1130250441AC05A3A88D50232C0870A3400C00210
S1130260C418C05A3A88D50232C0870A3400C00282
S1130270441AC05A3A88D50232C0870A3400C002F0
S11302804418C05A3A88D50232C0870A3400C002E2
S1130290841CC05A3A88D50232C0870A3400C0028E
S11302A04408C05A3A88D50232C0870A3A2800F86E
S11302B0340280040448A8943A880900170000A274
S11302C01EFB3F403400C0054400C0BD32C0C7051A
S11302D006000000150040B0170000AA26FD7F406C
S11302E0150000B0170000A23400C0054400C0BDD2
S11302F032C0C7053400C0050430C0BD32C0C705D4
S113030032C0C705062C000034004002040E414AE6
S113031004048000060000003A881D002613001023
S113032017004049260300281E0900280404800001
S113033006F93F003400C0020408C05A3A88D502C6
S113034032C0870A0401404AC4FFBF1006F23F00CE
S11303503400C002C436C05A3A88D50232C0870A73
S11303600401404AC4FFBF1006EB3F0034004002C2
S1130370040E414A0404800006000000260900100F
S1130380C03800000401404A06FC3F0017008049C1
S11303901701C0491500C04915018049C4FFBF10A9
S11303A03A2800F8C4FFBF941EFE3F903402800434
S11303B00448A89406C73F0034004002040E414A92
S11303C007008049260500402601404006FA3F0008
S11303D0261540201E160030060C00002612402070
S11303E0060000003400C0058400C0BD32C0C7054B
S11303F032C0070C3A882F003400C0050430C0BD59
S113040032C0C7054400000106BF3F003A882F00F0
S11304103400C0050430C0BD32C0C70532C0070C6B
S11304203A88090006B83F001EF87F3006ED3F0009
S10B0430150040B0062D3F0049
S113043800000000000000000000000001000000AF
S1130448000000000000000000000000010000009F
S1130458010000000000000000000000000000008F
S1130468010000000100000001000000010000007C
S9030000FC
